:020000040800F2
:100000000028002069110008F9100008FF100008FE
:10001000051100080B110008111100080000000074
:1000200000000000000000000000000017110008A0
:1000300023110008000000002F1100083B110008E8
:10004000B1110008B1110008B1110008B111000888
:10005000B1110008B1110008B1110008B111000878
:10006000B1110008B1110008B1110008B111000868
:10007000B1110008B1110008B1110008B111000858
:10008000B1110008B1110008B1110008B111000848
:10009000B1110008B1110008B1110008B111000838
:1000A000B1110008B1110008B1110008B111000828
:1000B00049110008B111000800000000B11100084A
:1000C000B11100080000000000000000B11100089C
:1000D00000000000B1110008B1110008000000008C
:1000E000B1110008B1110008B111000800000000B2
:1000F0000000000000000000000000000000000000
:0C01000000000000000000005FF808F1A3
:10010C0010B5054C237833B9044B13B10448AFF345
:10011C0000800123237010BD380000200000000077
:10012C000828000808B5034B1BB103490348AFF37B
:10013C00008008BD000000003C00002008280008DA
:10014C0080B500AF012000F0BFF90346002B3FD073
:10015C00224B1B686433214A1360214B00221A7016
:10016C001E4B1B681F4A82FB03129211DB17D31A1A
:10017C00DAB21B4B9A70194B1B681B4A82FB031299
:10018C005211DB17D21A194B83FB02139910D31798
:10019C00C91A0B469B000B445B00D11ACAB2104B18
:1001AC00DA70134B1B78042B0ED0042B12DC022BB1
:1001BC0002D0032B04D00DE0094B02225A700AE046
:1001CC00074B03225A7006E0054B04225A7002E0DA
:1001DC0000BF00E000BF00BF80BD00BF5400002086
:1001EC0058000020D34D62101F85EB516766666680
:1001FC005D00002080B500AF5A4B1B78042B7DD0DE
:10020C00042B00F3A580022B02D0032B3BD09FE0E4
:10021C00022000F01DFD002000F056F90346002BD3
:10022C0013D0504B03221A704F4B00221A604F4BC5
:10023C0000221A704D4B03225A704C4B00229A70BC
:10024C004A4B0022DA7000F0F1FDFFF779FF022033
:10025C0000F03AF90346002B7CD0434B1B68444A10
:10026C001360414B00221A60404B03225A703F4BE3
:10027C0000229A703D4B0022DA7000F0D7FD394B0A
:10028C0003221A7066E0032000F0E2FC002000F06C
:10029C001BF90346002B13D0324B04221A70324B3D
:1002AC0000221A60314B00221A70304B04225A7013
:1002BC002E4B00229A702D4B0022DA7000F0B6FD06
:1002CC00FFF73EFF022000F0FFF80346002B43D05F
:1002DC00254B1B68274A136000F0A8FD224B002217
:1002EC001A60224B04225A70204B00229A701F4B2A
:1002FC000022DA701B4B04221A702DE0042000F04F
:10030C00A7FC002000F0E0F80346002B08D01A4BA5
:10031C0002221A70184B04225A70124B00221A70C7
:10032C00FFF70EFF022000F0CFF80346002B15D08C
:10033C000D4B1B68114A13600F4B02221A700E4BA7
:10034C0004225A7000F072FD064B01221A7005E06F
:10035C0000BF04E000BF02E000BF00E000BF00BF30
:10036C0080BD00BF5D00002054000020580000201C
:10037C000400002008000020000000200C000020D9
:10038C0080B500AF2C4B1B78042B2FD0042B49DCF1
:10039C00022B02D0032B0DD044E000F0C3FC274B02
:1003AC001B78012B40D1244B04221A70002000F042
:1003BC00EFFD39E000F0CCFC01220121204801F0D6
:1003CC00F4F9002202211E4801F0EFF90122042168
:1003DC001B4801F0EAF9194B1B78012B26D1164B5F
:1003EC0002221A70002000F0D3FD1FE000F0C6FCC2
:1003FC0001220121124801F0D8F9012202211048F2
:10040C0001F0D3F9002204210D4801F0CEF90B4B79
:10041C001B78012B0CD1084B03221A70002000F022
:10042C00B7FD05E000BF04E000BF02E000BF00E044
:10043C0000BF00BF80BD00BF000000207000002086
:10044C000008014080B500AF1D4B5B78042B20D019
:10045C00042B2BDC022B02D0032B0DD026E000F05A
:10046C00A3FC184B1B78012B22D1154B04225A707C
:10047C00012000F08DFD1BE000F0ACFC114B1B7853
:10048C00012B17D10E4B02225A70012000F080FD77
:10049C0010E000F0B5FC0B4B1B78012B0CD1084B7A
:1004AC0003225A70012000F073FD05E000BF04E048
:1004BC0000BF02E000BF00E000BF00BF80BD00BF76
:1004CC00000000207100002080B483B000AF034610
:1004DC00FB71FB79074AD35C002B05D1FB79054AEC
:1004EC000121D154012300E0002318460C37BD46EE
:1004FC0080BC70472000002080B582B000AF002384
:10050C007B608DE04B4A7B68134419784A4A7B68C0
:10051C0013440A461A70494A7B6813441978454AB1
:10052C007B6813440A461A707B68002B0CD14FF47D
:10053C000061434801F022F9034619463F4A7B68A3
:10054C0013440A461A701BE07B68012B0CD14FF444
:10055C0080513B4801F012F903461946374A7B6833
:10056C0013440A461A700BE04FF40051344801F062
:10057C0005F903461946314A7B6813440A461A703A
:10058C002D4A7B6813441A782A497B680B441B78E4
:10059C009A4242D1274A7B6813441A7827497B68D0
:1005AC000B441B789A4238D1264A7B6813441A783C
:1005BC0022497B680B441B789A4219D01F4A7B68EE
:1005CC00134419781F4A7B6813440A461A701B4A55
:1005DC007B6813441B78002B1FD11B4A7B68C821F6
:1005EC0022F81310194A7B68134400221A7014E085
:1005FC00154A7B6832F81330013B99B2124A7B687A
:10060C0022F81310104A7B6832F81330002B04D1F7
:10061C000C4A7B68134401221A707B6801337B609F
:10062C007B68022B7FF76EAF00BF00BF0837BD465B
:10063C0080BD00BF14000020100000201800002016
:10064C00000801401C000020240000202000002095
:10065C0080B500AF00F0A8FD00F088F800F00EF9AE
:10066C0000F0C0F8374801F009FD192000F012FC29
:10067C00344B5B681A46344B1A60324BDB681A46B3
:10068C00324B1A60324B1B78002B0ED1012240F2F8
:10069C00FF31304801F089F82D4B01221A700020EF
:1006AC0000F076FC012000F073FC294B1B78012B29
:1006BC002DD1FFF765FEFFF7C5FE00F0E7F900202E
:1006CC00FFF702FF0346012B21D11F4B1B6801339F
:1006DC001E4A1268013202FB03F31F4A92FBF3F32A
:1006EC00184600F0EBFB1A4B02221A701B4B00222F
:1006FC001A601B4B00221A70194B02225A70184BAD
:10070C0000229A70164B0022DA7000F08FFBFFF774
:10071C0071FD144B1B78012BB4D1134B1B785A1C55
:10072C00D1B2114A1170184600F038FA0E4B1B78F2
:10073C00032B02D90C4B00221A70192000F0AAFBD3
:10074C00A0E700BF7C00002078000020740000208F
:10075C005D0000200008014000093D00540000200D
:10076C0058000020730000205C00002080B590B081
:10077C0000AF07F1180328220021184602F036F8C2
:10078C003B1D00221A605A609A60DA601A610223DB
:10079C00BB610123BB621023FB6200237B6307F167
:1007AC001803184601F032F80346002B01D000F074
:1007BC00D8F80F237B600023BB600023FB60002371
:1007CC003B6100237B613B1D0021184601F09EFA22
:1007DC000346002B01D000F0C4F800BF4037BD46E3
:1007EC0080BD000080B586B000AF07F10803002281
:1007FC001A605A609A60DA603B4600221A605A60AE
:10080C001D4B4FF080421A601B4B41F63F725A60F1
:10081C00194B00229A60184B0922DA60164B002201
:10082C001A61154B00229A61134801F0D7FB03465D
:10083C00002B01D000F095F84FF48053BB6007F10A
:10084C00080319460C4801F06DFD0346002B01D03E
:10085C0000F087F800233B6000237B603B46194681
:10086C00054801F035FF0346002B01D000F079F864
:10087C0000BF1837BD4680BD7C00002080B586B017
:10088C0000AF07F1080300221A605A609A60DA6020
:10089C00284B9B69274A43F004039361254B9B69C2
:1008AC0003F004037B607B68224B9B69214A43F075
:1008BC00080393611F4B9B6903F008033B603B6883
:1008CC00002240F2FF311C4800F06FFF00227F2114
:1008DC001A4800F06AFF40F2FF33BB600123FB6053
:1008EC0000233B6102237B6107F108031946124880
:1008FC0000F0CAFD7F23BB600123FB6000233B613A
:10090C0002237B6107F1080319460C4800F0BCFD7B
:10091C004FF46053BB600023FB6001233B6107F184
:10092C0008031946044800F0AFFD00BF1837BD4658
:10093C0080BD00BF0010024000080140000C0140C7
:10094C0080B582B000AF78607B681B68B3F1804FD4
:10095C0001D1FFF7D1FD00F0C5FA00BF0837BD4645
:10096C0080BD80B400AF72B600BFFEE780B582B028
:10097C0000AF0346FB71FB79092B00F2808001A2CA
:10098C0052F823F0B9090008CF090008E50900085E
:10099C00FB090008110A0008270A00083D0A000894
:1009AC00530A0008690A0008750A000800223F2152
:1009BC00354800F0FAFE01224021334800F0F5FEE4
:1009CC005EE000220621304800F0EFFE0122792182
:1009DC002D4800F0EAFE53E000225B212A4800F08B
:1009EC00E4FE01222421284800F0DFFE48E000222A
:1009FC004F21254800F0D9FE01223021224800F079
:100A0C00D4FE3DE0002266211F4800F0CEFE0122FC
:100A1C0019211D4800F0C9FE32E000226D211A4850
:100A2C0000F0C3FE01221221174800F0BEFE27E0A1
:100A3C0000227D21144800F0B8FE01220221124848
:100A4C0000F0B3FE1CE0002207210F4800F0ADFEC1
:100A5C00012278210C4800F0A8FE11E000227F2131
:100A6C00094800F0A2FE0BE000226F21064800F0BE
:100A7C009CFE01221021044800F097FE00E000BF0C
:100A8C0000BF0837BD4680BD000C014080B400AFEC
:100A9C00224B1B68224A82FB03129211DB17D31ADA
:100AAC00DAB2204B1A701D4B1B681F4A82FB0312D3
:100ABC005211DB17D21A1D4B83FB02139910D3175B
:100ACC00C91A0B469B000B445B00D11ACAB2154BDA
:100ADC005A70174B1B68124A82FB03129211DB17D8
:100AEC00D31ADAB20F4B9A70114B1B680E4A82FB69
:100AFC0003125211DB17D21A0C4B83FB0213991001
:100B0C00D317C91A0B469B000B445B00D11ACAB20F
:100B1C00044BDA7000BFBD4680BC704760000020FB
:100B2C00D34D6210580000201F85EB516766666636
:100B3C006400002080B582B000AF0346FB71FB79E6
:100B4C00032B23D801A252F823F000BF690B000835
:100B5C00750B0008810B00088D0B00080E4B1B78E1
:100B6C001846FFF703FF12E00B4B5B781846FFF7B4
:100B7C00FDFE0CE0084B9B781846FFF7F7FE06E0ED
:100B8C00054BDB781846FFF7F1FE00E000BF00BF15
:100B9C000837BD4680BD00BF5800002080B582B02C
:100BAC0000AF0346FB71FB79032B49D801A252F825
:100BBC0023F000BFD10B0008EF0B00080D0C000850
:100BCC002D0C000800224021204800F0EEFD0122EF
:100BDC004FF460711D4800F0E8FD0020FFF7AAFFFC
:100BEC002FE000228021194800F0DFFD01224FF494
:100BFC005071164800F0D9FD0120FFF79BFF20E053
:100C0C0000224FF48071114800F0CFFD01224FF407
:100C1C0030710E4800F0C9FD0220FFF78BFF10E089
:100C2C0000224FF40071094800F0BFFD01224FF47F
:100C3C00E071064800F0B9FD0320FFF77BFF00E0F0
:100C4C0000BF00BF0837BD4680BD00BF0008014093
:100C5C0080B582B000AF0346FB71FB79042B34D016
:100C6C00042B49DC022B02D0032B17D044E0284B79
:100C7C001B78012B42D10921264800F0AEFD264BF2
:100C8C001B680133254A1268013202FB03F3244A24
:100C9C0092FBF3F3184600F011F92FE01C4B1B7874
:100CAC00012B2DD112211B4800F097FD1A4B1B680C
:100CBC0001331A4A1268013202FB03F3184A92FB01
:100CCC00F3F3184600F0FAF81AE0114B1B78012BDD
:100CDC0018D124210F4800F080FD0F4B1B68013305
:100CEC000E4A1268013202FB03F30D4A92FBF3F336
:100CFC00184600F0E3F805E000BF04E000BF02E096
:100D0C0000BF00E000BF00BF0837BD4680BD00BF7C
:100D1C0072000020000801407800002074000020C0
:100D2C0000093D0080B500AF00220121074800F00A
:100D3C003CFD01220221054800F037FD012204216F
:100D4C00024800F032FD00BF80BD00BF000801402A
:100D5C0080B500AF01220121074800F026FD0022DA
:100D6C000221054800F021FD01220421024800F077
:100D7C001CFD00BF80BD00BF0008014080B500AF66
:100D8C0001220121074800F010FD01220221054833
:100D9C0000F00BFD00220421024800F006FD00BF0C
:100DAC0080BD00BF0008014080B500AF00220821C3
:100DBC00074800F0FAFC01221021054800F0F5FC70
:100DCC0001222021024800F0F0FC00BF80BD00BFD2
:100DDC000008014080B500AF01220821074800F04F
:100DEC00E4FC00221021054800F0DFFC0122202148
:100DFC00024800F0DAFC00BF80BD00BF00080140D3
:100E0C0080B500AF01220821074800F0CEFC01227A
:100E1C001021054800F0C9FC00222021024800F0F6
:100E2C00C4FC00BF80BD00BF0008014080B500AF0E
:100E3C0001223F21024800F0B8FC00BF80BD00BF7A
:100E4C000008014080B483B000AF7860054A7B682D
:100E5C001360054B00221A7000BF0C37BD4680BCD6
:100E6C00704700BF600000207000002080B483B089
:100E7C0000AF7860054A7B681360054B00221A703E
:100E8C0000BF0C37BD4680BC704700BF640000201B
:100E9C007100002080B483B000AF7860054A7B6895
:100EAC001360054B00221A7000BF0C37BD4680BC86
:100EBC00704700BF6C0000207300002080B483B02A
:100ECC0000AF7860054A7B681360054B00221A70EE
:100EDC0000BF0C37BD4680BC704700BF68000020C7
:100EEC007200002080B400AF214B1B68002B0BDD7F
:100EFC001F4B1B68013B1E4A13601D4B1B68002BCC
:100F0C0002DC1C4B01221A701B4B1B68002B0BDDE7
:100F1C00194B1B68013B184A1360174B1B68002BBD
:100F2C0002DC164B01221A70154B1B68002B0BDDD3
:100F3C00134B1B68013B124A1360114B1B68002BAF
:100F4C0002DC104B01221A700F4B1B68002B0BDDBF
:100F5C000D4B1B68013B0C4A13600B4B1B68002BA1
:100F6C0002DC0A4B01221A7000BFBD4680BC7047E0
:100F7C006000002070000020640000207100002040
:100F8C0068000020720000206C000020730000201C
:100F9C0080B582B000AF0346FB71FB79002B1CD1EE
:100FAC00234B1B78042B12D0042B18DC022B02D001
:100FBC00032B06D013E01F4B1B681846FFF742FFAC
:100FCC000EE01D4B1B681846FFF73CFF08E01B4B5F
:100FDC001B681846FFF736FF02E000BF00E000BFB9
:100FEC00FB79012B1CD1124B5B78042B12D0042BF8
:100FFC0018DC022B02D0032B06D013E00D4B1B6820
:10100C001846FFF733FF0EE00B4B1B681846FFF733
:10101C002DFF08E0094B1B681846FFF727FF02E07D
:10102C0000BF00E000BF00BF0837BD4680BD00BF59
:10103C000000002004000020080000200C0000200C
:10104C0080B485B000AF154B9B69144A43F0010383
:10105C009361124B9B6903F00103BB60BB680F4BA0
:10106C00DB690E4A43F08053D3610C4BDB6903F010
:10107C0080537B607B680A4B5B68FB60FB6823F0EA
:10108C00E063FB60FB6843F08063FB60044AFB6831
:10109C00536000BF1437BD4680BC7047001002403F
:1010AC000000014080B584B000AF78607B681B689D
:1010BC00B3F1804F13D10C4BDB690B4A43F00103A6
:1010CC00D361094BDB6903F00103FB60FB68002271
:1010DC0000211C2000F0A1F91C2000F0BAF900BF7F
:1010EC001037BD4680BD00BF0010024080B400AF79
:1010FC00FEE780B400AFFEE780B400AFFEE780B43B
:10110C0000AFFEE780B400AFFEE780B400AF00BFD5
:10111C00BD4680BC704780B400AF00BFBD4680BCEC
:10112C00704780B400AF00BFBD4680BC704780B52F
:10113C0000AF00F07FF800BF80BD000080B500AFAD
:10114C00024800F0E7FF00BF80BD00BF7C0000201C
:10115C0080B400AF00BFBD4680BC7047FFF7F8FFFE
:10116C000B480C490C4A002302E0D458C4500433F9
:10117C00C4188C42F9D3094A094C002301E01360CE
:10118C000432A242FBD301F00DFBFFF761FA70476A
:10119C0000000020380000204828000838000020FB
:1011AC00C8000020FEE7000080B500AF084B1B68AC
:1011BC00074A43F010031360032000F023F90F20BB
:1011CC0000F008F8FFF73CFF0023184680BD00BF75
:1011DC000020024080B582B000AF7860124B1A68D4
:1011EC00124B1B7819464FF47A73B3FBF1F3B2FB35
:1011FC00F3F3184600F03BF90346002B01D0012312
:10120C000EE07B680F2B0AD8002279684FF0FF3074
:10121C0000F003F9064A7B681360002300E0012309
:10122C0018460837BD4680BD2C0000203400002035
:10123C003000002080B400AF054B1B781A46054BDC
:10124C001B681344034A136000BFBD4680BC704743
:10125C0034000020C400002080B400AF024B1B6897
:10126C001846BD4680BC7047C400002080B485B0D1
:10127C0000AF78607B6803F00703FB600C4BDB6806
:10128C00BB60BA684FF6FF031340BB60FB681A02E1
:10129C00BB68134343F0BF6343F40033BB60044AA1
:1012AC00BB68D36000BF1437BD4680BC704700BF1D
:1012BC0000ED00E080B400AF044BDB681B0A03F0C8
:1012CC0007031846BD4680BC704700BF00ED00E028
:1012DC0080B483B000AF0346FB7197F90730002B45
:1012EC000BDBFB7903F01F02064997F907305B090A
:1012FC00012000FA02F241F8232000BF0C37BD4652
:10130C0080BC704700E100E080B483B000AF0346BE
:10131C003960FB7197F90730002B0ADB3B68DAB2B6
:10132C000C4997F907301201D2B20B4483F8002311
:10133C000AE03B68DAB20849FB7903F00F03043B7F
:10134C001201D2B20B441A7600BF0C37BD4680BCDA
:10135C00704700BF00E100E000ED00E080B489B010
:10136C0000AFF860B9607A60FB6803F00703FB61BB
:10137C00FB69C3F10703042B28BF0423BB61FB6982
:10138C000433062B02D9FB69033B00E000237B618D
:10139C004FF0FF32BB6902FA03F3DA43BB681A4021
:1013AC007B699A404FF0FF317B6901FA03F3D94313
:1013BC007B680B40134318462437BD4680BC7047EE
:1013CC0080B582B000AF78607B68013BB3F1807F61
:1013DC0001D301230FE00A4A7B68013B53600F21C4
:1013EC004FF0FF30FFF790FF054B00229A60044B43
:1013FC0007221A60002318460837BD4680BD00BF7F
:10140C0010E000E080B582B000AF78607868FFF73C
:10141C002DFF00BF0837BD4680BD80B586B000AF3C
:10142C000346B9607A60FB7300237B61FFF742FFD0
:10143C0078617A68B9687869FFF790FF024697F986
:10144C000F3011461846FFF75FFF00BF1837BD4637
:10145C0080BD80B582B000AF0346FB7197F90730B1
:10146C001846FFF735FF00BF0837BD4680BD80B575
:10147C0082B000AF78607868FFF7A2FF0346184689
:10148C000837BD4680BD000080B48BB000AF7860DB
:10149C00396000237B6200233B6248E101227B6AB6
:1014AC0002FA03F3FB613B681B68FA691340BB61EA
:1014BC00BA69FB699A4240F037813B685B68A34A82
:1014CC0093425ED0A14A934275D8A14A934258D018
:1014DC009F4A93426FD89F4A934252D09D4A93425F
:1014EC0069D89D4A93424CD09B4A934263D89B4AFD
:1014FC00934246D0994A93425DD8122B2AD8122B8C
:10150C0059D801A252F823F08F150008691500086C
:10151C007B150008BD150008C3150008C31500088D
:10152C00C3150008C3150008C3150008C31500082F
:10153C00C3150008C3150008C3150008C31500081F
:10154C00C3150008C3150008C31500087115000861
:10155C0085150008824A934213D02CE03B68DB6867
:10156C003B6229E03B68DB6804333B6224E03B6868
:10157C00DB6808333B621FE03B68DB680C333B6283
:10158C001AE03B689B68002B02D104233B6213E0FA
:10159C003B689B68012B05D108233B627B68FA6989
:1015AC001A6109E008233B627B68FA695A6103E01F
:1015BC0000233B6200E000BFBB69FF2B01D87B68B6
:1015CC0001E07B6804337B61BB69FF2B02D87B6A2B
:1015DC009B0002E07B6A083B9B003B617B691A68BD
:1015EC000F213B6901FA03F3DB431A40396A3B696B
:1015FC0001FA03F31A437B691A603B685B6803F0DA
:10160C008053002B00F09080564B9B69554A43F059
:10161C0001039361534B9B6903F00103BB60BB68EF
:10162C00514A7B6A9B08023352F82330FB607B6A79
:10163C0003F003039B000F2202FA03F3DB43FA6867
:10164C001340FB607B68494A93420DD07B68484A43
:10165C00934207D07B68474A934201D1022304E0AE
:10166C00032302E0012300E000237A6A02F0030264
:10167C0092009340FA681343FB603B497B6A9B08DA
:10168C000233FA6841F823203B685B6803F480332B
:10169C00002B06D0384B1A683749BB6913430B60D3
:1016AC0006E0354B1A68BB69DB43334913400B60CA
:1016BC003B685B6803F40033002B06D02E4B5A6852
:1016CC002D49BB6913434B6006E02B4B5A68BB6931
:1016DC00DB43294913404B603B685B6803F4801380
:1016EC00002B06D0244B9A682349BB6913438B60AB
:1016FC0006E0214B9A68BB69DB431F4913408B60A2
:10170C003B685B6803F40013002B06D01A4BDA68B5
:10171C001949BB691343CB6006E0174BDA68BB6908
:10172C00DB4315491340CB607B6A01337B623B681A
:10173C001A687B6A22FA03F3002B7FF4AFAE00BF6A
:10174C0000BF2C37BD4680BC704700BF0000321074
:10175C0000003110000022100000211000001210B7
:10176C000000111000100240000001400008014070
:10177C00000C0140001001400004014080B485B011
:10178C0000AF78600B467B807B689A687B8813403F
:10179C00002B02D00123FB7301E00023FB73FB7BC6
:1017AC0018461437BD4680BC704780B483B000AF78
:1017BC0078600B467B8013467B707B78002B03D0C4
:1017CC007A887B681A6103E07B881A047B681A614B
:1017DC0000BF0C37BD4680BC704780B485B000AFED
:1017EC0078600B467B807B68DB68FB607A88FB68E3
:1017FC0013401A04FB68D9437B880B401A437B685F
:10180C001A6100BF1437BD4680BC704780B586B0E6
:10181C0000AF78607B68002B01D101236CE27B6800
:10182C001B6803F00103002B00F08780924B5B6870
:10183C0003F00C03042B0CD08F4B5B6803F00C03F0
:10184C00082B12D18C4B5B6803F48033B3F5803FCB
:10185C000BD1894B1B6803F40033002B6CD07B68D5
:10186C005B68002B68D1012346E27B685B68B3F5AB
:10187C00803F06D1804B1B687F4A43F48033136052
:10188C002EE07B685B68002B0CD17B4B1B687A4A83
:10189C0023F480331360784B1B68774A23F480233E
:1018AC0013601DE07B685B68B3F5A02F0CD1724B05
:1018BC001B68714A43F4802313606F4B1B686E4A9C
:1018CC0043F4803313600BE06B4B1B686A4A23F4C0
:1018DC0080331360684B1B68674A23F480231360C2
:1018EC007B685B68002B13D0FFF7B6FC386108E00F
:1018FC00FFF7B2FC02463B69D31A642B01D90323D0
:10190C00FAE15D4B1B6803F40033002BF0D014E0BC
:10191C00FFF7A2FC386108E0FFF79EFC02463B692A
:10192C00D31A642B01D90323E6E1534B1B6803F450
:10193C000033002BF0D100E000BF7B681B6803F084
:10194C000203002B63D04C4B5B6803F00C03002BA1
:10195C000BD0494B5B6803F00C03082B1CD1464B96
:10196C005B6803F48033002B16D1434B1B6803F0E8
:10197C000203002B05D07B681B69012B01D00123CE
:10198C00BAE13D4B1B6823F0F8027B685B69DB0016
:10199C00394913430B603AE07B681B69002B20D05C
:1019AC00364B01221A60FFF757FC386108E0FFF74D
:1019BC0053FC02463B69D31A022B01D903239BE14A
:1019CC002D4B1B6803F00203002BF0D02A4B1B6835
:1019DC0023F0F8027B685B69DB00274913430B603B
:1019EC0015E0264B00221A60FFF736FC386108E040
:1019FC00FFF732FC02463B69D31A022B01D90323B1
:101A0C007AE11D4B1B6803F00203002BF0D17B68BD
:101A1C001B6803F00803002B3AD07B689B69002BF2
:101A2C0019D0174B01221A60FFF716FC386108E039
:101A3C00FFF712FC02463B69D31A022B01D9032390
:101A4C005AE10D4B5B6A03F00203002BF0D001202E
:101A5C0000F0A6FA1CE00A4B00221A60FFF7FCFB10
:101A6C0038610FE0FFF7F8FB02463B69D31A022BF3
:101A7C0008D9032340E100BF00100240000042429D
:101A8C00800442429E4B5B6A03F00203002BE9D1B7
:101A9C007B681B6803F00403002B00F0A680002376
:101AAC00FB75974BDB6903F08053002B0DD1944BE6
:101ABC00DB69934A43F08053D361914BDB6903F0AC
:101ACC008053BB60BB680123FB758E4B1B6803F412
:101ADC008073002B18D18B4B1B688A4A43F480739C
:101AEC001360FFF7B9FB386108E0FFF7B5FB02465E
:101AFC003B69D31A642B01D90323FDE0814B1B688E
:101B0C0003F48073002BF0D07B68DB68012B06D1CB
:101B1C007B4B1B6A7A4A43F0010313622DE07B680E
:101B2C00DB68002B0CD1764B1B6A754A23F0010342
:101B3C001362734B1B6A724A23F0040313621CE09A
:101B4C007B68DB68052B0CD16D4B1B6A6C4A43F030
:101B5C00040313626A4B1B6A694A43F00103136264
:101B6C000BE0674B1B6A664A23F001031362644B5C
:101B7C001B6A634A23F0040313627B68DB68002B47
:101B8C0015D0FFF769FB38610AE0FFF765FB0246E9
:101B9C003B69D31A41F28832934201D90323ABE05B
:101BAC00574B1B6A03F00203002BEED014E0FFF737
:101BBC0053FB38610AE0FFF74FFB02463B69D31A2F
:101BCC0041F28832934201D9032395E04C4B1B6AB6
:101BDC0003F00203002BEED1FB7D012B05D1484B0A
:101BEC00DB69474A23F08053D3617B68DB69002BA8
:101BFC0000F08180424B5B6803F00C03082B61D032
:101C0C007B68DB69022B46D13F4B00221A60FFF741
:101C1C0023FB386108E0FFF71FFB02463B69D31A30
:101C2C00022B01D9032367E0354B1B6803F00073CB
:101C3C00002BF0D17B681B6AB3F5803F08D1304B89
:101C4C005B6823F400327B689B682D4913434B601F
:101C5C002B4B5B6823F474127B68196A7B685B6A94
:101C6C000B43274913434B60274B01221A60FFF7A4
:101C7C00F3FA386108E0FFF7EFFA02463B69D31A32
:101C8C00022B01D9032337E01D4B1B6803F00073B3
:101C9C00002BF0D02FE01C4B00221A60FFF7DCFA6F
:101CAC00386108E0FFF7D8FA02463B69D31A022BD9
:101CBC0001D9032320E0124B1B6803F00073002BA7
:101CCC00F0D118E07B68DB69012B01D1012313E013
:101CDC000B4B5B68FB60FB6803F480327B681B6A10
:101CEC009A4206D1FB6803F470127B685B6A9A42D5
:101CFC0001D0012300E0002318461837BD4680BDF3
:101D0C0000100240007000406000424280B584B078
:101D1C0000AF786039607B68002B01D10123D0E0E3
:101D2C006A4B1B6803F007033A689A4210D9674B59
:101D3C001B6823F0070265493B6813430B60634B38
:101D4C001B6803F007033A689A4201D00123B8E0FC
:101D5C007B681B6803F00203002B20D07B681B6898
:101D6C0003F00403002B05D0594B5B68584A43F42D
:101D7C00E06353607B681B6803F00803002B05D0FD
:101D8C00534B5B68524A43F460535360504B5B684F
:101D9C0023F0F0027B689B684D4913434B607B68D2
:101DAC001B6803F00103002B40D07B685B68012BA0
:101DBC0007D1474B1B6803F40033002B15D10123CB
:101DCC007FE07B685B68022B07D1414B1B6803F0FB
:101DDC000073002B09D1012373E03D4B1B6803F00A
:101DEC000203002B01D101236BE0394B5B6823F01C
:101DFC0003027B685B68364913434B60FFF72CFA90
:101E0C00F8600AE0FFF728FA0246FB68D31A41F2A1
:101E1C008832934201D9032353E02D4B5B6803F0C6
:101E2C000C027B685B689B009A42EBD1274B1B68CA
:101E3C0003F007033A689A4210D2244B1B6823F034
:101E4C00070222493B6813430B60204B1B6803F0CD
:101E5C0007033A689A4201D0012332E07B681B6881
:101E6C0003F00403002B08D0194B5B6823F4E062E9
:101E7C007B68DB68164913434B607B681B6803F077
:101E8C000803002B09D0124B5B6823F460527B686B
:101E9C001B69DB000E4913434B6000F021F802462E
:101EAC000B4B5B681B0903F00F030A49CB5C22FA4E
:101EBC0003F3094A1360094B1B681846FFF78AF9AC
:101ECC00002318461037BD4680BD00BF00200240DD
:101EDC0000100240302800082C00002030000020A8
:101EEC0090B48AB000AF2A4B3C1D0FCB84E80F0096
:101EFC0040F201233B800023FB610023BB610023E4
:101F0C007B6200237B6100233B62224B5B68FB619D
:101F1C00FB6903F00C03042B02D0082B03D02DE03B
:101F2C001D4B3B622DE0FB699B0C03F00F0307F18B
:101F3C002802134413F8243C7B61FB6903F48033BF
:101F4C00002B13D0134B5B685B0C03F0010307F100
:101F5C002802134413F8283CBB617B690E4A02FB30
:101F6C0003F2BB69B2FBF3F37B6204E07B690B4ABF
:101F7C0002FB03F37B627B6A3B6202E0064B3B6233
:101F8C0000BF3B6A18462837BD4690BC704700BF5F
:101F9C00202800080010024000127A0000093D00C1
:101FAC0080B485B000AF78600A4B1B680A4AA2FB6C
:101FBC0003235B0A7A6802FB03F3FB6000BFFB6838
:101FCC005A1EFA60002BF9D100BF00BF1437BD4672
:101FDC0080BC70472C000020D34D621080B582B0BD
:101FEC0000AF78607B68002B01D1012341E07B6856
:101FFC0093F83D30DBB2002B06D17B68002283F8CE
:10200C003C207868FFF74EF87B68022283F83D206D
:10201C007B681A687B6804331946104600F06AFA2C
:10202C007B68012283F846207B68012283F83E20DE
:10203C007B68012283F83F207B68012283F84020D3
:10204C007B68012283F841207B68012283F84220BF
:10205C007B68012283F843207B68012283F84420AB
:10206C007B68012283F845207B68012283F83D20A0
:10207C00002318460837BD4680BD000080B485B0EB
:10208C0000AF78607B6893F83D30DBB2012B01D058
:10209C00012335E07B68022283F83D207B681B68B6
:1020AC00DA687B681B6842F00102DA607B681B68A7
:1020BC00164A934209D07B681B68B3F1804F04D059
:1020CC007B681B68124A934211D17B681B689B6822
:1020DC0003F00703FB60FB68062B10D07B681B68C2
:1020EC001A687B681B6842F001021A6007E07B6883
:1020FC001B681A687B681B6842F001021A60002397
:10210C0018461437BD4680BC704700BF002C0140F8
:10211C000004004080B582B000AF78607B681B681B
:10212C001B6903F00203022B22D17B681B68DB685E
:10213C0003F00203022B1BD17B681B686FF00202B9
:10214C001A617B6801221A777B681B689B6903F014
:10215C000303002B03D0786800F0B1F905E0786830
:10216C0000F0A4F9786800F0B3F97B6800221A77C4
:10217C007B681B681B6903F00403042B22D17B686A
:10218C001B68DB6803F00403042B1BD17B681B6802
:10219C006FF004021A617B6802221A777B681B6855
:1021AC009B6903F44073002B03D0786800F087F927
:1021BC0005E0786800F07AF9786800F089F97B68B6
:1021CC0000221A777B681B681B6903F00803082B35
:1021DC0022D17B681B68DB6803F00803082B1BD13A
:1021EC007B681B686FF008021A617B6804221A77FF
:1021FC007B681B68DB6903F00303002B03D0786852
:10220C0000F05DF905E0786800F050F9786800F0AE
:10221C005FF97B6800221A777B681B681B6903F0E7
:10222C001003102B22D17B681B68DB6803F01003B2
:10223C00102B1BD17B681B686FF010021A617B6836
:10224C0008221A777B681B68DB6903F44073002B48
:10225C0003D0786800F033F905E0786800F026F9CF
:10226C00786800F035F97B6800221A777B681B6868
:10227C001B6903F00103012B0ED17B681B68DB6823
:10228C0003F00103012B07D17B681B686FF001027F
:10229C001A617868FEF754FB7B681B681B6903F0B6
:1022AC008003802B0ED17B681B68DB6803F08003F6
:1022BC00802B07D17B681B686FF080021A617868ED
:1022CC0000F067FA7B681B681B6903F04003402B26
:1022DC000ED17B681B68DB6803F04003402B07D1F1
:1022EC007B681B686FF040021A61786800F0F9F89F
:1022FC007B681B681B6903F02003202B0ED17B68C5
:10230C001B68DB6803F02003202B07D17B681B685C
:10231C006FF020021A61786800F032FA00BF0837BB
:10232C00BD4680BD80B584B000AF786039607B68F5
:10233C0093F83C30012B01D10223B3E07B680122DE
:10234C0083F83C207B68022283F83D207B681B6865
:10235C009B68FB60FB6823F07703FB60FB6823F44E
:10236C007F43FB607B681B68FA689A603B681B685C
:10237C00B3F5005F3ED0B3F5005F00F28780B3F594
:10238C00805F00F08580B3F5805F7FD8702B1AD00A
:10239C00702B7BD8602B50D0602B77D8502B3CD037
:1023AC00502B73D8402B58D0402B6FD8302B64D087
:1023BC00302B6BD8202B60D0202B67D8002B5CD017
:1023CC00102B5AD062E07B6818683B6899683B68B0
:1023DC005A683B68DB6800F05CF97B681B689B689B
:1023EC00FB60FB6843F07703FB607B681B68FA6853
:1023FC009A604EE07B6818683B6899683B685A683D
:10240C003B68DB6800F045F97B681B689A687B6861
:10241C001B6842F480429A603BE07B6818683B681A
:10242C0059683B68DB681A4600F0BCF87B681B688F
:10243C005021184600F013F92BE07B6818683B68B4
:10244C0059683B68DB681A4600F0DAF87B681B6851
:10245C006021184600F003F91BE07B6818683B68A4
:10246C0059683B68DB681A4600F09CF87B681B686F
:10247C004021184600F0F3F80BE07B681A683B68C3
:10248C001B681946104600F0EAF802E000BF00E0B5
:10249C0000BF7B68012283F83D207B68002283F813
:1024AC003C20002318461037BD4680BD80B483B055
:1024BC0000AF786000BF0C37BD4680BC704780B45D
:1024CC0083B000AF786000BF0C37BD4680BC70474E
:1024DC0080B483B000AF786000BF0C37BD4680BCC1
:1024EC00704780B483B000AF786000BF0C37BD4636
:1024FC0080BC704780B485B000AF786039607B6871
:10250C001B68FB607B68254A934207D07B68B3F15C
:10251C00804F03D07B68224A934208D1FB6823F09A
:10252C007003FB603B685B68FA681343FB607B6875
:10253C001A4A934207D07B68B3F1804F03D07B6873
:10254C00174A934208D1FB6823F44073FB603B6845
:10255C00DB68FA681343FB60FB6823F080023B687E
:10256C005B691343FB607B68FA681A603B689A6886
:10257C007B68DA623B681A687B689A627B68074AF8
:10258C00934203D13B681A697B681A637B6801220A
:10259C005A6100BF1437BD4680BC7047002C014007
:1025AC000004004080B487B000AFF860B9607A6076
:1025BC00FB681B6A7B61FB681B6A23F00102FB68EA
:1025CC001A62FB689B693B613B6923F0F0033B613A
:1025DC007B681B013A6913433B617B6923F00A0357
:1025EC007B617A69BB6813437B61FB683A699A61CA
:1025FC00FB687A691A6200BF1C37BD4680BC704705
:10260C0080B487B000AFF860B9607A60FB681B6A71
:10261C0023F01002FB681A62FB689B697B61FB6804
:10262C001B6A3B617B6923F470437B617B681B03F2
:10263C007A6913437B613B6923F0A0033B61BB6860
:10264C001B013A6913433B61FB687A699A61FB6829
:10265C003A691A6200BF1C37BD4680BC704780B413
:10266C0085B000AF786039607B689B68FB60FB6865
:10267C0023F07003FB603A68FB68134343F00703D5
:10268C00FB607B68FA689A6000BF1437BD4680BC5B
:10269C00704780B487B000AFF860B9607A603B6077
:1026AC00FB689B687B617B6923F47F437B613B68A0
:1026BC001A027B681A43BB6813437A6913437B6124
:1026CC00FB687A699A6000BF1C37BD4680BC7047B6
:1026DC0080B485B000AF786039607B6893F83C308B
:1026EC00012B01D1022341E07B68012283F83C20BD
:1026FC007B68022283F83D207B681B685B68FB606B
:10270C007B681B689B68BB60FB6823F07003FB60F5
:10271C003B681B68FA681343FB607B681B68FA68AC
:10272C005A607B681B68144A934209D07B681B680B
:10273C00B3F1804F04D07B681B68104A93420CD1D4
:10274C00BB6823F08003BB603B685B68BA681343CB
:10275C00BB607B681B68BA689A607B68012283F84F
:10276C003D207B68002283F83C2000231846143758
:10277C00BD4680BC704700BF002C014000040040E7
:10278C0080B483B000AF786000BF0C37BD4680BC0E
:10279C00704780B483B000AF786000BF0C37BD4683
:1027AC0080BC704770B500260C4D0D4C641BA410FA
:1027BC00A64209D100F022F800260A4D0A4C641BEF
:1027CC00A410A64205D170BD55F8043B98470136BC
:1027DC00EEE755F8043B98470136F2E7402800082D
:1027EC0040280008402800084428000803460244FA
:1027FC00934200D1704703F8011BF9E7F8B500BF0D
:10280C00F8BC08BC9E467047F8B500BFF8BC08BCC5
:04281C009E4670471D
:1028200002030405060708090A0B0C0D0E0F101011
:102830000000000000000000010203040607080970
:04284000310100085A
:042844000D0100087A
:1028480002040000F4010000C80000002C01000090
:102858000101010001010100010101000101010064
:1028680001010100C8006400C80000000024F40051
:08287800100000000100000047
:040000050800116975
:00000001FF
